{
  "_format": "hh-sol-artifact-1",
  "contractName": "TestNFT1155",
  "sourceName": "contracts/test/TestNFT1155.sol",
  "abi": [
    {
      "inputs": [],
      "stateMutability": "nonpayable",
      "type": "constructor"
    },
    {
      "anonymous": false,
      "inputs": [
        {
          "indexed": true,
          "internalType": "address",
          "name": "account",
          "type": "address"
        },
        {
          "indexed": true,
          "internalType": "address",
          "name": "operator",
          "type": "address"
        },
        {
          "indexed": false,
          "internalType": "bool",
          "name": "approved",
          "type": "bool"
        }
      ],
      "name": "ApprovalForAll",
      "type": "event"
    },
    {
      "anonymous": false,
      "inputs": [
        {
          "indexed": true,
          "internalType": "address",
          "name": "operator",
          "type": "address"
        },
        {
          "indexed": true,
          "internalType": "address",
          "name": "from",
          "type": "address"
        },
        {
          "indexed": true,
          "internalType": "address",
          "name": "to",
          "type": "address"
        },
        {
          "indexed": false,
          "internalType": "uint256[]",
          "name": "ids",
          "type": "uint256[]"
        },
        {
          "indexed": false,
          "internalType": "uint256[]",
          "name": "values",
          "type": "uint256[]"
        }
      ],
      "name": "TransferBatch",
      "type": "event"
    },
    {
      "anonymous": false,
      "inputs": [
        {
          "indexed": true,
          "internalType": "address",
          "name": "operator",
          "type": "address"
        },
        {
          "indexed": true,
          "internalType": "address",
          "name": "from",
          "type": "address"
        },
        {
          "indexed": true,
          "internalType": "address",
          "name": "to",
          "type": "address"
        },
        {
          "indexed": false,
          "internalType": "uint256",
          "name": "id",
          "type": "uint256"
        },
        {
          "indexed": false,
          "internalType": "uint256",
          "name": "value",
          "type": "uint256"
        }
      ],
      "name": "TransferSingle",
      "type": "event"
    },
    {
      "anonymous": false,
      "inputs": [
        {
          "indexed": false,
          "internalType": "string",
          "name": "value",
          "type": "string"
        },
        {
          "indexed": true,
          "internalType": "uint256",
          "name": "id",
          "type": "uint256"
        }
      ],
      "name": "URI",
      "type": "event"
    },
    {
      "inputs": [
        {
          "internalType": "address",
          "name": "account",
          "type": "address"
        },
        {
          "internalType": "uint256",
          "name": "id",
          "type": "uint256"
        }
      ],
      "name": "balanceOf",
      "outputs": [
        {
          "internalType": "uint256",
          "name": "",
          "type": "uint256"
        }
      ],
      "stateMutability": "view",
      "type": "function"
    },
    {
      "inputs": [
        {
          "internalType": "address[]",
          "name": "accounts",
          "type": "address[]"
        },
        {
          "internalType": "uint256[]",
          "name": "ids",
          "type": "uint256[]"
        }
      ],
      "name": "balanceOfBatch",
      "outputs": [
        {
          "internalType": "uint256[]",
          "name": "",
          "type": "uint256[]"
        }
      ],
      "stateMutability": "view",
      "type": "function"
    },
    {
      "inputs": [
        {
          "internalType": "address",
          "name": "account",
          "type": "address"
        },
        {
          "internalType": "address",
          "name": "operator",
          "type": "address"
        }
      ],
      "name": "isApprovedForAll",
      "outputs": [
        {
          "internalType": "bool",
          "name": "",
          "type": "bool"
        }
      ],
      "stateMutability": "view",
      "type": "function"
    },
    {
      "inputs": [
        {
          "internalType": "address",
          "name": "account",
          "type": "address"
        },
        {
          "internalType": "uint256",
          "name": "id",
          "type": "uint256"
        },
        {
          "internalType": "uint256",
          "name": "amount",
          "type": "uint256"
        },
        {
          "internalType": "bytes",
          "name": "data",
          "type": "bytes"
        }
      ],
      "name": "mint",
      "outputs": [],
      "stateMutability": "nonpayable",
      "type": "function"
    },
    {
      "inputs": [
        {
          "internalType": "address",
          "name": "to",
          "type": "address"
        },
        {
          "internalType": "uint256[]",
          "name": "ids",
          "type": "uint256[]"
        },
        {
          "internalType": "uint256[]",
          "name": "amounts",
          "type": "uint256[]"
        },
        {
          "internalType": "bytes",
          "name": "data",
          "type": "bytes"
        }
      ],
      "name": "mintBatch",
      "outputs": [],
      "stateMutability": "nonpayable",
      "type": "function"
    },
    {
      "inputs": [
        {
          "internalType": "address",
          "name": "from",
          "type": "address"
        },
        {
          "internalType": "address",
          "name": "to",
          "type": "address"
        },
        {
          "internalType": "uint256[]",
          "name": "ids",
          "type": "uint256[]"
        },
        {
          "internalType": "uint256[]",
          "name": "amounts",
          "type": "uint256[]"
        },
        {
          "internalType": "bytes",
          "name": "data",
          "type": "bytes"
        }
      ],
      "name": "safeBatchTransferFrom",
      "outputs": [],
      "stateMutability": "nonpayable",
      "type": "function"
    },
    {
      "inputs": [
        {
          "internalType": "address",
          "name": "from",
          "type": "address"
        },
        {
          "internalType": "address",
          "name": "to",
          "type": "address"
        },
        {
          "internalType": "uint256",
          "name": "id",
          "type": "uint256"
        },
        {
          "internalType": "uint256",
          "name": "amount",
          "type": "uint256"
        },
        {
          "internalType": "bytes",
          "name": "data",
          "type": "bytes"
        }
      ],
      "name": "safeTransferFrom",
      "outputs": [],
      "stateMutability": "nonpayable",
      "type": "function"
    },
    {
      "inputs": [
        {
          "internalType": "address",
          "name": "operator",
          "type": "address"
        },
        {
          "internalType": "bool",
          "name": "approved",
          "type": "bool"
        }
      ],
      "name": "setApprovalForAll",
      "outputs": [],
      "stateMutability": "nonpayable",
      "type": "function"
    },
    {
      "inputs": [
        {
          "internalType": "bytes4",
          "name": "interfaceId",
          "type": "bytes4"
        }
      ],
      "name": "supportsInterface",
      "outputs": [
        {
          "internalType": "bool",
          "name": "",
          "type": "bool"
        }
      ],
      "stateMutability": "view",
      "type": "function"
    },
    {
      "inputs": [
        {
          "internalType": "uint256",
          "name": "",
          "type": "uint256"
        }
      ],
      "name": "uri",
      "outputs": [
        {
          "internalType": "string",
          "name": "",
          "type": "string"
        }
      ],
      "stateMutability": "view",
      "type": "function"
    }
  ],
  "bytecode": "0x60806040523480156200001157600080fd5b5060408051808201909152600b81526a546573744e46543131353560a81b6020820152620000466301ffc9a760e01b6200007c565b620000518162000101565b62000063636cdb3d1360e11b6200007c565b620000756303a24d0760e21b6200007c565b50620001b6565b6001600160e01b03198082161415620000dc576040805162461bcd60e51b815260206004820152601c60248201527f4552433136353a20696e76616c696420696e7465726661636520696400000000604482015290519081900360640190fd5b6001600160e01b0319166000908152602081905260409020805460ff19166001179055565b8051620001169060039060208401906200011a565b5050565b828054600181600116156101000203166002900490600052602060002090601f016020900481019282601f106200015d57805160ff19168380011785556200018d565b828001600101855582156200018d579182015b828111156200018d57825182559160200191906001019062000170565b506200019b9291506200019f565b5090565b5b808211156200019b5760008155600101620001a0565b611bd080620001c66000396000f3fe608060405234801561001057600080fd5b506004361061009d5760003560e01c80634e1273f4116100665780634e1273f414610528578063731133e91461069b578063a22cb4651461075b578063e985e9c514610789578063f242432a146107b75761009d565b8062fdd58e146100a257806301ffc9a7146100e05780630e89341c1461011b5780631f7fdffa146101ad5780632eb2c2d614610367575b600080fd5b6100ce600480360360408110156100b857600080fd5b506001600160a01b038135169060200135610880565b60408051918252519081900360200190f35b610107600480360360208110156100f657600080fd5b50356001600160e01b0319166108ef565b604080519115158252519081900360200190f35b6101386004803603602081101561013157600080fd5b503561090e565b6040805160208082528351818301528351919283929083019185019080838360005b8381101561017257818101518382015260200161015a565b50505050905090810190601f16801561019f5780820380516001836020036101000a031916815260200191505b509250505060405180910390f35b610365600480360360808110156101c357600080fd5b6001600160a01b038235169190810190604081016020820135600160201b8111156101ed57600080fd5b8201836020820111156101ff57600080fd5b803590602001918460208302840111600160201b8311171561022057600080fd5b9190808060200260200160405190810160405280939291908181526020018383602002808284376000920191909152509295949360208101935035915050600160201b81111561026f57600080fd5b82018360208201111561028157600080fd5b803590602001918460208302840111600160201b831117156102a257600080fd5b9190808060200260200160405190810160405280939291908181526020018383602002808284376000920191909152509295949360208101935035915050600160201b8111156102f157600080fd5b82018360208201111561030357600080fd5b803590602001918460018302840111600160201b8311171561032457600080fd5b91908080601f0160208091040260200160405190810160405280939291908181526020018383808284376000920191909152509295506109a6945050505050565b005b610365600480360360a081101561037d57600080fd5b6001600160a01b038235811692602081013590911691810190606081016040820135600160201b8111156103b057600080fd5b8201836020820111156103c257600080fd5b803590602001918460208302840111600160201b831117156103e357600080fd5b9190808060200260200160405190810160405280939291908181526020018383602002808284376000920191909152509295949360208101935035915050600160201b81111561043257600080fd5b82018360208201111561044457600080fd5b803590602001918460208302840111600160201b8311171561046557600080fd5b9190808060200260200160405190810160405280939291908181526020018383602002808284376000920191909152509295949360208101935035915050600160201b8111156104b457600080fd5b8201836020820111156104c657600080fd5b803590602001918460018302840111600160201b831117156104e757600080fd5b91908080601f0160208091040260200160405190810160405280939291908181526020018383808284376000920191909152509295506109b8945050505050565b61064b6004803603604081101561053e57600080fd5b810190602081018135600160201b81111561055857600080fd5b82018360208201111561056a57600080fd5b803590602001918460208302840111600160201b8311171561058b57600080fd5b9190808060200260200160405190810160405280939291908181526020018383602002808284376000920191909152509295949360208101935035915050600160201b8111156105da57600080fd5b8201836020820111156105ec57600080fd5b803590602001918460208302840111600160201b8311171561060d57600080fd5b919080806020026020016040519081016040528093929190818152602001838360200280828437600092019190915250929550610cb6945050505050565b60408051602080825283518183015283519192839290830191858101910280838360005b8381101561068757818101518382015260200161066f565b505050509050019250505060405180910390f35b610365600480360360808110156106b157600080fd5b6001600160a01b038235169160208101359160408201359190810190608081016060820135600160201b8111156106e757600080fd5b8201836020820111156106f957600080fd5b803590602001918460018302840111600160201b8311171561071a57600080fd5b91908080601f016020809104026020016040519081016040528093929190818152602001838380828437600092019190915250929550610da2945050505050565b6103656004803603604081101561077157600080fd5b506001600160a01b0381351690602001351515610dae565b6101076004803603604081101561079f57600080fd5b506001600160a01b0381358116916020013516610e9d565b610365600480360360a08110156107cd57600080fd5b6001600160a01b03823581169260208101359091169160408201359160608101359181019060a081016080820135600160201b81111561080c57600080fd5b82018360208201111561081e57600080fd5b803590602001918460018302840111600160201b8311171561083f57600080fd5b91908080601f016020809104026020016040519081016040528093929190818152602001838380828437600092019190915250929550610ecb945050505050565b60006001600160a01b0383166108c75760405162461bcd60e51b815260040180806020018281038252602b815260200180611a2b602b913960400191505060405180910390fd5b5060009081526001602090815260408083206001600160a01b03949094168352929052205490565b6001600160e01b03191660009081526020819052604090205460ff1690565b60038054604080516020601f600260001961010060018816150201909516949094049384018190048102820181019092528281526060939092909183018282801561099a5780601f1061096f5761010080835404028352916020019161099a565b820191906000526020600020905b81548152906001019060200180831161097d57829003601f168201915b50505050509050919050565b6109b284848484611096565b50505050565b81518351146109f85760405162461bcd60e51b8152600401808060200182810382526028815260200180611b526028913960400191505060405180910390fd5b6001600160a01b038416610a3d5760405162461bcd60e51b8152600401808060200182810382526025815260200180611a7f6025913960400191505060405180910390fd5b610a456112eb565b6001600160a01b0316856001600160a01b03161480610a705750610a7085610a6b6112eb565b610e9d565b610aab5760405162461bcd60e51b8152600401808060200182810382526032815260200180611aa46032913960400191505060405180910390fd5b6000610ab56112eb565b9050610ac5818787878787610cae565b60005b8451811015610bc6576000858281518110610adf57fe5b602002602001015190506000858381518110610af757fe5b60200260200101519050610b64816040518060600160405280602a8152602001611ad6602a91396001600086815260200190815260200160002060008d6001600160a01b03166001600160a01b03168152602001908152602001600020546112f09092919063ffffffff16565b60008381526001602090815260408083206001600160a01b038e811685529252808320939093558a1681522054610b9b9082611387565b60009283526001602081815260408086206001600160a01b038d168752909152909320555001610ac8565b50846001600160a01b0316866001600160a01b0316826001600160a01b03167f4a39dc06d4c0dbc64b70af90fd698a233a518aa5d07e595d983b8c0526c8f7fb8787604051808060200180602001838103835285818151815260200191508051906020019060200280838360005b83811015610c4c578181015183820152602001610c34565b50505050905001838103825284818151815260200191508051906020019060200280838360005b83811015610c8b578181015183820152602001610c73565b5050505090500194505050505060405180910390a4610cae8187878787876113e8565b505050505050565b60608151835114610cf85760405162461bcd60e51b8152600401808060200182810382526029815260200180611b296029913960400191505060405180910390fd5b6060835167ffffffffffffffff81118015610d1257600080fd5b50604051908082528060200260200182016040528015610d3c578160200160208202803683370190505b50905060005b8451811015610d9a57610d7b858281518110610d5a57fe5b6020026020010151858381518110610d6e57fe5b6020026020010151610880565b828281518110610d8757fe5b6020908102919091010152600101610d42565b509392505050565b6109b284848484611667565b816001600160a01b0316610dc06112eb565b6001600160a01b03161415610e065760405162461bcd60e51b8152600401808060200182810382526029815260200180611b006029913960400191505060405180910390fd5b8060026000610e136112eb565b6001600160a01b03908116825260208083019390935260409182016000908120918716808252919093529120805460ff191692151592909217909155610e576112eb565b6001600160a01b03167f17307eab39ab6107e8899845ad3d59bd9653f200f220920489ca2b5937696c318360405180821515815260200191505060405180910390a35050565b6001600160a01b03918216600090815260026020908152604080832093909416825291909152205460ff1690565b6001600160a01b038416610f105760405162461bcd60e51b8152600401808060200182810382526025815260200180611a7f6025913960400191505060405180910390fd5b610f186112eb565b6001600160a01b0316856001600160a01b03161480610f3e5750610f3e85610a6b6112eb565b610f795760405162461bcd60e51b8152600401808060200182810382526029815260200180611a566029913960400191505060405180910390fd5b6000610f836112eb565b9050610fa3818787610f9488611768565b610f9d88611768565b87610cae565b610fea836040518060600160405280602a8152602001611ad6602a913960008781526001602090815260408083206001600160a01b038d16845290915290205491906112f0565b60008581526001602090815260408083206001600160a01b038b811685529252808320939093558716815220546110219084611387565b60008581526001602090815260408083206001600160a01b03808b168086529184529382902094909455805188815291820187905280518a8416938616927fc3d58168c5ae7397731d063d5bbf3d657854427343f4c083240f7aacaa2d0f6292908290030190a4610cae8187878787876117ac565b6001600160a01b0384166110db5760405162461bcd60e51b8152600401808060200182810382526021815260200180611b7a6021913960400191505060405180910390fd5b815183511461111b5760405162461bcd60e51b8152600401808060200182810382526028815260200180611b526028913960400191505060405180910390fd5b60006111256112eb565b905061113681600087878787610cae565b60005b84518110156111fa576111b16001600087848151811061115557fe5b602002602001015181526020019081526020016000206000886001600160a01b03166001600160a01b031681526020019081526020016000205485838151811061119b57fe5b602002602001015161138790919063ffffffff16565b600160008784815181106111c157fe5b602090810291909101810151825281810192909252604090810160009081206001600160a01b038b168252909252902055600101611139565b50846001600160a01b031660006001600160a01b0316826001600160a01b03167f4a39dc06d4c0dbc64b70af90fd698a233a518aa5d07e595d983b8c0526c8f7fb8787604051808060200180602001838103835285818151815260200191508051906020019060200280838360005b83811015611281578181015183820152602001611269565b50505050905001838103825284818151815260200191508051906020019060200280838360005b838110156112c05781810151838201526020016112a8565b5050505090500194505050505060405180910390a46112e4816000878787876113e8565b5050505050565b335b90565b6000818484111561137f5760405162461bcd60e51b81526004018080602001828103825283818151815260200191508051906020019080838360005b8381101561134457818101518382015260200161132c565b50505050905090810190601f1680156113715780820380516001836020036101000a031916815260200191505b509250505060405180910390fd5b505050900390565b6000828201838110156113e1576040805162461bcd60e51b815260206004820152601b60248201527f536166654d6174683a206164646974696f6e206f766572666c6f770000000000604482015290519081900360640190fd5b9392505050565b6113fa846001600160a01b031661191d565b15610cae57836001600160a01b031663bc197c8187878686866040518663ffffffff1660e01b815260040180866001600160a01b03168152602001856001600160a01b03168152602001806020018060200180602001848103845287818151815260200191508051906020019060200280838360005b83811015611488578181015183820152602001611470565b50505050905001848103835286818151815260200191508051906020019060200280838360005b838110156114c75781810151838201526020016114af565b50505050905001848103825285818151815260200191508051906020019080838360005b838110156115035781810151838201526020016114eb565b50505050905090810190601f1680156115305780820380516001836020036101000a031916815260200191505b5098505050505050505050602060405180830381600087803b15801561155557600080fd5b505af192505050801561157a57506040513d602081101561157557600080fd5b505160015b61160f57611586611929565b8061159157506115d8565b60405162461bcd60e51b815260206004820181815283516024840152835184939192839260440191908501908083836000831561134457818101518382015260200161132c565b60405162461bcd60e51b81526004018080602001828103825260348152602001806119cf6034913960400191505060405180910390fd5b6001600160e01b0319811663bc197c8160e01b1461165e5760405162461bcd60e51b8152600401808060200182810382526028815260200180611a036028913960400191505060405180910390fd5b50505050505050565b6001600160a01b0384166116ac5760405162461bcd60e51b8152600401808060200182810382526021815260200180611b7a6021913960400191505060405180910390fd5b60006116b66112eb565b90506116c881600087610f9488611768565b60008481526001602090815260408083206001600160a01b03891684529091529020546116f59084611387565b60008581526001602090815260408083206001600160a01b03808b16808652918452828520959095558151898152928301889052815190948616927fc3d58168c5ae7397731d063d5bbf3d657854427343f4c083240f7aacaa2d0f6292908290030190a46112e4816000878787876117ac565b60408051600180825281830190925260609182919060208083019080368337019050509050828160008151811061179b57fe5b602090810291909101015292915050565b6117be846001600160a01b031661191d565b15610cae57836001600160a01b031663f23a6e6187878686866040518663ffffffff1660e01b815260040180866001600160a01b03168152602001856001600160a01b0316815260200184815260200183815260200180602001828103825283818151815260200191508051906020019080838360005b8381101561184d578181015183820152602001611835565b50505050905090810190601f16801561187a5780820380516001836020036101000a031916815260200191505b509650505050505050602060405180830381600087803b15801561189d57600080fd5b505af19250505080156118c257506040513d60208110156118bd57600080fd5b505160015b6118ce57611586611929565b6001600160e01b0319811663f23a6e6160e01b1461165e5760405162461bcd60e51b8152600401808060200182810382526028815260200180611a036028913960400191505060405180910390fd5b3b151590565b60e01c90565b600060443d1015611939576112ed565b600481823e6308c379a061194d8251611923565b14611957576112ed565b6040513d600319016004823e80513d67ffffffffffffffff816024840111818411171561198757505050506112ed565b828401925082519150808211156119a157505050506112ed565b503d830160208284010111156119b9575050506112ed565b601f01601f191681016020016040529150509056fe455243313135353a207472616e7366657220746f206e6f6e2045524331313535526563656976657220696d706c656d656e746572455243313135353a204552433131353552656365697665722072656a656374656420746f6b656e73455243313135353a2062616c616e636520717565727920666f7220746865207a65726f2061646472657373455243313135353a2063616c6c6572206973206e6f74206f776e6572206e6f7220617070726f766564455243313135353a207472616e7366657220746f20746865207a65726f2061646472657373455243313135353a207472616e736665722063616c6c6572206973206e6f74206f776e6572206e6f7220617070726f766564455243313135353a20696e73756666696369656e742062616c616e636520666f72207472616e73666572455243313135353a2073657474696e6720617070726f76616c2073746174757320666f722073656c66455243313135353a206163636f756e747320616e6420696473206c656e677468206d69736d61746368455243313135353a2069647320616e6420616d6f756e7473206c656e677468206d69736d61746368455243313135353a206d696e7420746f20746865207a65726f2061646472657373a2646970667358221220f4b453b2c3187a713b45299ad9f641ddd1cb606ec1c4a9781dc891c1e7bb6a7664736f6c634300060c0033",
  "linkReferences": {},
  "deployedLinkReferences": {}
}