{
  "_format": "hh-sol-artifact-1",
  "contractName": "Bank20",
  "sourceName": "contracts/Bank20.sol",
  "abi": [
    {
      "inputs": [],
      "stateMutability": "nonpayable",
      "type": "constructor"
    },
    {
      "anonymous": false,
      "inputs": [
        {
          "indexed": true,
          "internalType": "address",
          "name": "token",
          "type": "address"
        },
        {
          "indexed": true,
          "internalType": "address",
          "name": "from",
          "type": "address"
        },
        {
          "indexed": true,
          "internalType": "address",
          "name": "to",
          "type": "address"
        },
        {
          "indexed": false,
          "internalType": "uint256",
          "name": "value",
          "type": "uint256"
        }
      ],
      "name": "Claim",
      "type": "event"
    },
    {
      "anonymous": false,
      "inputs": [
        {
          "indexed": true,
          "internalType": "address",
          "name": "token",
          "type": "address"
        },
        {
          "indexed": true,
          "internalType": "address",
          "name": "to",
          "type": "address"
        },
        {
          "indexed": false,
          "internalType": "uint256",
          "name": "value",
          "type": "uint256"
        }
      ],
      "name": "Deposit",
      "type": "event"
    },
    {
      "anonymous": false,
      "inputs": [
        {
          "indexed": true,
          "internalType": "address",
          "name": "token",
          "type": "address"
        },
        {
          "indexed": true,
          "internalType": "address",
          "name": "from",
          "type": "address"
        },
        {
          "indexed": true,
          "internalType": "address",
          "name": "to",
          "type": "address"
        },
        {
          "indexed": false,
          "internalType": "uint256",
          "name": "value",
          "type": "uint256"
        }
      ],
      "name": "Password",
      "type": "event"
    },
    {
      "anonymous": false,
      "inputs": [
        {
          "indexed": true,
          "internalType": "address",
          "name": "token",
          "type": "address"
        },
        {
          "indexed": true,
          "internalType": "address",
          "name": "to",
          "type": "address"
        },
        {
          "indexed": false,
          "internalType": "uint256",
          "name": "value",
          "type": "uint256"
        }
      ],
      "name": "Withdraw",
      "type": "event"
    },
    {
      "inputs": [],
      "name": "CLAIM_TYPEHASH",
      "outputs": [
        {
          "internalType": "bytes32",
          "name": "",
          "type": "bytes32"
        }
      ],
      "stateMutability": "view",
      "type": "function"
    },
    {
      "inputs": [],
      "name": "DOMAIN_SEPARATOR",
      "outputs": [
        {
          "internalType": "bytes32",
          "name": "",
          "type": "bytes32"
        }
      ],
      "stateMutability": "view",
      "type": "function"
    },
    {
      "inputs": [],
      "name": "PASSWORD_TYPEHASH",
      "outputs": [
        {
          "internalType": "bytes32",
          "name": "",
          "type": "bytes32"
        }
      ],
      "stateMutability": "view",
      "type": "function"
    },
    {
      "inputs": [
        {
          "internalType": "address",
          "name": "token",
          "type": "address"
        },
        {
          "internalType": "address",
          "name": "owner",
          "type": "address"
        },
        {
          "internalType": "address",
          "name": "spender",
          "type": "address"
        },
        {
          "internalType": "uint256",
          "name": "value",
          "type": "uint256"
        },
        {
          "internalType": "uint256",
          "name": "deadline",
          "type": "uint256"
        },
        {
          "internalType": "uint8",
          "name": "v",
          "type": "uint8"
        },
        {
          "internalType": "bytes32",
          "name": "r",
          "type": "bytes32"
        },
        {
          "internalType": "bytes32",
          "name": "s",
          "type": "bytes32"
        }
      ],
      "name": "claim",
      "outputs": [],
      "stateMutability": "nonpayable",
      "type": "function"
    },
    {
      "inputs": [
        {
          "internalType": "address",
          "name": "token",
          "type": "address"
        },
        {
          "internalType": "address",
          "name": "owner",
          "type": "address"
        },
        {
          "internalType": "uint256",
          "name": "value",
          "type": "uint256"
        }
      ],
      "name": "deposit",
      "outputs": [],
      "stateMutability": "nonpayable",
      "type": "function"
    },
    {
      "inputs": [
        {
          "internalType": "bytes32",
          "name": "",
          "type": "bytes32"
        }
      ],
      "name": "nonces",
      "outputs": [
        {
          "internalType": "bool",
          "name": "",
          "type": "bool"
        }
      ],
      "stateMutability": "view",
      "type": "function"
    },
    {
      "inputs": [
        {
          "internalType": "address",
          "name": "token",
          "type": "address"
        },
        {
          "internalType": "address",
          "name": "owner",
          "type": "address"
        },
        {
          "internalType": "string",
          "name": "psw",
          "type": "string"
        },
        {
          "internalType": "uint256",
          "name": "value",
          "type": "uint256"
        },
        {
          "internalType": "uint256",
          "name": "deadline",
          "type": "uint256"
        },
        {
          "internalType": "uint8",
          "name": "v",
          "type": "uint8"
        },
        {
          "internalType": "bytes32",
          "name": "r",
          "type": "bytes32"
        },
        {
          "internalType": "bytes32",
          "name": "s",
          "type": "bytes32"
        }
      ],
      "name": "password",
      "outputs": [],
      "stateMutability": "nonpayable",
      "type": "function"
    },
    {
      "inputs": [
        {
          "internalType": "address",
          "name": "",
          "type": "address"
        },
        {
          "internalType": "address",
          "name": "",
          "type": "address"
        }
      ],
      "name": "tokenUserBalance",
      "outputs": [
        {
          "internalType": "uint256",
          "name": "",
          "type": "uint256"
        }
      ],
      "stateMutability": "view",
      "type": "function"
    },
    {
      "inputs": [
        {
          "internalType": "address",
          "name": "token",
          "type": "address"
        },
        {
          "internalType": "address",
          "name": "spender",
          "type": "address"
        },
        {
          "internalType": "uint256",
          "name": "value",
          "type": "uint256"
        }
      ],
      "name": "withdraw",
      "outputs": [],
      "stateMutability": "nonpayable",
      "type": "function"
    }
  ],
  "bytecode": "0x608060405234801561001057600080fd5b506040805180820182526006815265042616e6b32360d41b602091820152815180830183526001808252603160f81b9183019190915282517f8b73c3c69bb8fe3d512ecc4cf759cc79239f7b179b0ffacaa9a75d522b39400f818401527fc33b8f30d6a402858e57eb4b188ffa157501657e98bce16bd78b9b0a91f4e32a818501527fc89efdaa54c0f20c7adf612882df0950f5a951637e0307cdcb4c672f298b8bc660608201524660808201523060a0808301919091528451808303909101815260c0909101909352825192909101919091206000557fa05335bcb0b0413b06aebf7578cda47f15e56bda72a634ee823fc1ef42ec199490557f3dce4743a9c307489689d5a78849d8466d3d3fa3806e2e97961cead248e9a34b600255610d628061013d6000396000f3fe608060405234801561001057600080fd5b50600436106100935760003560e01c80639e317f12116100665780639e317f12146101cc578063c2d7ccdb146101fd578063d9c8a0d314610205578063d9caed1214610233578063fe12e1671461026957610093565b80633644e515146100985780636b0509b1146100b25780638340f549146100ba5780638be27cb6146100f2575b600080fd5b6100a06102c1565b60408051918252519081900360200190f35b6100a06102c7565b6100f0600480360360608110156100d057600080fd5b506001600160a01b038135811691602081013590911690604001356102cd565b005b6100f0600480360361010081101561010957600080fd5b6001600160a01b03823581169260208101359091169181019060608101604082013564010000000081111561013d57600080fd5b82018360208201111561014f57600080fd5b8035906020019184600183028401116401000000008311171561017157600080fd5b91908080601f0160208091040260200160405190810160405280939291908181526020018383808284376000920191909152509295505082359350505060208101359060ff60408201351690606081013590608001356103b3565b6101e9600480360360208110156101e257600080fd5b50356107ae565b604080519115158252519081900360200190f35b6100a06107c3565b6100a06004803603604081101561021b57600080fd5b506001600160a01b03813581169160200135166107c9565b6100f06004803603606081101561024957600080fd5b506001600160a01b038135811691602081013590911690604001356107e6565b6100f0600480360361010081101561028057600080fd5b506001600160a01b03813581169160208101358216916040820135169060608101359060808101359060ff60a0820135169060c08101359060e00135610942565b60005481565b60015481565b604080516323b872dd60e01b81523360048201523060248201526044810183905290516001600160a01b038516916323b872dd9160648083019260209291908290030181600087803b15801561032257600080fd5b505af1158015610336573d6000803e3d6000fd5b505050506040513d602081101561034c57600080fd5b50506001600160a01b03838116600081815260046020908152604080832094871680845294825291829020805486019055815185815291517f5548c837ab068cf56a2c2479df0882a4922fd203edb7517321831d95078c5f629281900390910190a3505050565b428410156103f25760405162461bcd60e51b8152600401808060200182810382526022815260200180610ce86022913960400191505060405180910390fd5b600080546002548a8a8a8a8a60405160200180878152602001866001600160a01b03168152602001856001600160a01b0316815260200180602001848152602001838152602001828103825285818151815260200191508051906020019080838360005b8381101561046e578181015183820152602001610456565b50505050905090810190601f16801561049b5780820380516001836020036101000a031916815260200191505b5060408051601f19818403018152828252805160209182012061190160f01b82850152602284019c909c5260428084019c909c528151808403909c018c52606290920181528a519a82019a909a206000818152600390925299902054989950505060ff90961615955061055b945050505050576040805162461bcd60e51b815260206004820181905260248201527f42616e6b32303a3a70617373776f72643a206578706972656420646967657374604482015290519081900360640190fd5b600060018286868660405160008152602001604052604051808581526020018460ff1681526020018381526020018281526020019450505050506020604051602081039080840390855afa1580156105b7573d6000803e3d6000fd5b5050604051601f1901519150506001600160a01b038116158015906105ed5750886001600160a01b0316816001600160a01b0316145b6106285760405162461bcd60e51b8152600401808060200182810382526023815260200180610d0a6023913960400191505060405180910390fd5b6001600160a01b03808b166000908152600460209081526040808320938d16835292905220548711156106a2576040805162461bcd60e51b815260206004820152601760248201527f42616e6b32303a3a70617373776f72643a206f68206e6f000000000000000000604482015290519081900360640190fd5b6001600160a01b038a81166000818152600460208181526040808420958f16845294815284832080548d90039055845163a9059cbb60e01b81523392810192909252602482018c90529351929363a9059cbb9360448084019492939192918390030190829087803b15801561071657600080fd5b505af115801561072a573d6000803e3d6000fd5b505050506040513d602081101561074057600080fd5b5050600082815260036020908152604091829020805460ff191660011790558151898152915133926001600160a01b038d811693908f16927fb6a4de4f10443720d160a890639ebfc73808cda95283421dcc762d9d40d0dacc9281900390910190a450505050505050505050565b60036020526000908152604090205460ff1681565b60025481565b600460209081526000928352604080842090915290825290205481565b6001600160a01b038316600090815260046020908152604080832033845290915290205481111561085e576040805162461bcd60e51b815260206004820152601760248201527f42616e6b32303a3a77697468647261773a206f68206e6f000000000000000000604482015290519081900360640190fd5b6001600160a01b038381166000818152600460208181526040808420338552825280842080548890039055805163a9059cbb60e01b815295881692860192909252602485018690529051929363a9059cbb9360448083019491928390030190829087803b1580156108ce57600080fd5b505af11580156108e2573d6000803e3d6000fd5b505050506040513d60208110156108f857600080fd5b50506040805182815290516001600160a01b0380851692908616917f9b1bfa7fa9ee420a16e124f794c35ac9f90472acc99140eb2f6447c714cad8eb9181900360200190a3505050565b42841015610997576040805162461bcd60e51b815260206004820152601f60248201527f42616e6b32303a3a636c61696d3a206578706972656420646561646c696e6500604482015290519081900360640190fd5b60008054600154604080516020808201939093526001600160a01b03808e1682840152808d1660608301528b16608082015260a081018a905260c08082018a90528251808303909101815260e08201835280519084012061190160f01b6101008301526101028201949094526101228082019490945281518082039094018452610142018152825192820192909220808452600390915291205460ff1615610a86576040805162461bcd60e51b815260206004820152601d60248201527f42616e6b32303a3a636c61696d3a206578706972656420646967657374000000604482015290519081900360640190fd5b600060018286868660405160008152602001604052604051808581526020018460ff1681526020018381526020018281526020019450505050506020604051602081039080840390855afa158015610ae2573d6000803e3d6000fd5b5050604051601f1901519150506001600160a01b03811615801590610b185750886001600160a01b0316816001600160a01b0316145b610b69576040805162461bcd60e51b815260206004820181905260248201527f42616e6b32303a3a636c61696d3a20696e76616c6964207369676e6174757265604482015290519081900360640190fd5b6001600160a01b03808b166000908152600460209081526040808320938d1683529290522054871115610bda576040805162461bcd60e51b815260206004820152601460248201527342616e6b32303a3a636c61696d3a206f68206e6f60601b604482015290519081900360640190fd5b6001600160a01b038a811660008181526004602081815260408084208f87168552825280842080548e90039055805163a9059cbb60e01b8152958e1692860192909252602485018c90529051929363a9059cbb9360448083019491928390030190829087803b158015610c4c57600080fd5b505af1158015610c60573d6000803e3d6000fd5b505050506040513d6020811015610c7657600080fd5b5050600082815260036020908152604091829020805460ff19166001179055815189815291516001600160a01b03808c16938d821693918f16927fc1405953cccdad6b442e266c84d66ad671e2534c6584f8e6ef92802f7ad294d5929181900390910190a45050505050505050505056fe42616e6b32303a3a70617373776f72643a206578706972656420646561646c696e6542616e6b32303a3a70617373776f72643a20696e76616c6964207369676e6174757265a264697066735822122062be3fabd399c0585a8f63aea8d76c8c2f21b65e26ae43221850c7204d8a353a64736f6c634300060c0033",
  "linkReferences": {},
  "deployedLinkReferences": {}
}