{
  "_format": "hh-sol-artifact-1",
  "contractName": "DeDropsERC",
  "sourceName": "contracts/badland/DeDropsERC.sol",
  "abi": [
    {
      "inputs": [
        {
          "internalType": "address",
          "name": "bankAddress",
          "type": "address"
        }
      ],
      "stateMutability": "nonpayable",
      "type": "constructor"
    },
    {
      "anonymous": false,
      "inputs": [
        {
          "indexed": true,
          "internalType": "address",
          "name": "previousOwner",
          "type": "address"
        },
        {
          "indexed": true,
          "internalType": "address",
          "name": "newOwner",
          "type": "address"
        }
      ],
      "name": "OwnershipTransferred",
      "type": "event"
    },
    {
      "inputs": [],
      "name": "bank",
      "outputs": [
        {
          "internalType": "contract Bank20",
          "name": "",
          "type": "address"
        }
      ],
      "stateMutability": "view",
      "type": "function"
    },
    {
      "inputs": [
        {
          "internalType": "address",
          "name": "token",
          "type": "address"
        },
        {
          "internalType": "uint256",
          "name": "amount",
          "type": "uint256"
        },
        {
          "internalType": "string",
          "name": "title",
          "type": "string"
        },
        {
          "internalType": "uint256",
          "name": "startTime",
          "type": "uint256"
        },
        {
          "internalType": "uint256",
          "name": "endTime",
          "type": "uint256"
        },
        {
          "internalType": "uint256",
          "name": "claimNum",
          "type": "uint256"
        },
        {
          "internalType": "string",
          "name": "info",
          "type": "string"
        }
      ],
      "name": "drop",
      "outputs": [],
      "stateMutability": "nonpayable",
      "type": "function"
    },
    {
      "inputs": [
        {
          "internalType": "uint256",
          "name": "",
          "type": "uint256"
        }
      ],
      "name": "idToDrop",
      "outputs": [
        {
          "internalType": "uint256",
          "name": "id",
          "type": "uint256"
        },
        {
          "internalType": "address",
          "name": "token",
          "type": "address"
        },
        {
          "internalType": "uint256",
          "name": "amount",
          "type": "uint256"
        },
        {
          "internalType": "string",
          "name": "title",
          "type": "string"
        },
        {
          "internalType": "uint256",
          "name": "startTime",
          "type": "uint256"
        },
        {
          "internalType": "uint256",
          "name": "endTime",
          "type": "uint256"
        },
        {
          "internalType": "uint256",
          "name": "claimNum",
          "type": "uint256"
        },
        {
          "internalType": "string",
          "name": "info",
          "type": "string"
        }
      ],
      "stateMutability": "view",
      "type": "function"
    },
    {
      "inputs": [],
      "name": "length",
      "outputs": [
        {
          "internalType": "uint256",
          "name": "",
          "type": "uint256"
        }
      ],
      "stateMutability": "view",
      "type": "function"
    },
    {
      "inputs": [],
      "name": "owner",
      "outputs": [
        {
          "internalType": "address",
          "name": "",
          "type": "address"
        }
      ],
      "stateMutability": "view",
      "type": "function"
    },
    {
      "inputs": [],
      "name": "renounceOwnership",
      "outputs": [],
      "stateMutability": "nonpayable",
      "type": "function"
    },
    {
      "inputs": [
        {
          "internalType": "address",
          "name": "newOwner",
          "type": "address"
        }
      ],
      "name": "transferOwnership",
      "outputs": [],
      "stateMutability": "nonpayable",
      "type": "function"
    }
  ],
  "bytecode": "0x6080604052600060015534801561001557600080fd5b50604051610b12380380610b128339818101604052602081101561003857600080fd5b505160006100446100b3565b600080546001600160a01b0319166001600160a01b0383169081178255604051929350917f8be0079c531659141344cd1fd0a4f28419497f9722a3daafe3b4186f6b6457e0908290a350600280546001600160a01b0319166001600160a01b03929092169190911790556100b7565b3390565b610a4c806100c66000396000f3fe608060405234801561001057600080fd5b506004361061007d5760003560e01c80637c0a885e1161005b5780637c0a885e146100ca5780638da5cb5b146101b3578063f2fde38b146101bb578063f4f69443146101e15761007d565b80631f7b6d3214610082578063715018a61461009c57806376cdb03b146100a6575b600080fd5b61008a61030f565b60408051918252519081900360200190f35b6100a4610315565b005b6100ae6103d3565b604080516001600160a01b039092168252519081900360200190f35b6100a4600480360360e08110156100e057600080fd5b6001600160a01b038235169160208101359181019060608101604082013564010000000081111561011057600080fd5b82018360208201111561012257600080fd5b8035906020019184600183028401116401000000008311171561014457600080fd5b91939092823592602081013592604082013592909160808101906060013564010000000081111561017457600080fd5b82018360208201111561018657600080fd5b803590602001918460018302840111640100000000831117156101a857600080fd5b5090925090506103e2565b6100ae6106d6565b6100a4600480360360208110156101d157600080fd5b50356001600160a01b03166106e5565b6101fe600480360360208110156101f757600080fd5b50356107f9565b60405180898152602001886001600160a01b031681526020018781526020018060200186815260200185815260200184815260200180602001838103835288818151815260200191508051906020019080838360005b8381101561026c578181015183820152602001610254565b50505050905090810190601f1680156102995780820380516001836020036101000a031916815260200191505b50838103825284518152845160209182019186019080838360005b838110156102cc5781810151838201526020016102b4565b50505050905090810190601f1680156102f95780820380516001836020036101000a031916815260200191505b509a505050505050505050505060405180910390f35b60015481565b61031d610959565b6001600160a01b031661032e6106d6565b6001600160a01b031614610389576040805162461bcd60e51b815260206004820181905260248201527f4f776e61626c653a2063616c6c6572206973206e6f7420746865206f776e6572604482015290519081900360640190fd5b600080546040516001600160a01b03909116907f8be0079c531659141344cd1fd0a4f28419497f9722a3daafe3b4186f6b6457e0908390a3600080546001600160a01b0319169055565b6002546001600160a01b031681565b600060016000815460010191905081905590506040518061010001604052808281526020018b6001600160a01b031681526020018a815260200189898080601f01602080910402602001604051908101604052809392919081815260200183838082843760009201919091525050509082525060208082018990526040808301899052606083018890528051601f870183900483028101830190915285815260809092019190869086908190840183828082843760009201829052509390945250508381526003602081815260409283902085518155858201516001820180546001600160a01b0319166001600160a01b0390921691909117905592850151600284015560608501518051939450610500939285019291019061095d565b506080820151600482015560a0820151600582015560c0820151600682015560e0820151805161053a91600784019160209091019061095d565b5050604080516323b872dd60e01b8152336004820152306024820152604481018c905290516001600160a01b038d1692506323b872dd916064808201926020929091908290030181600087803b15801561059357600080fd5b505af11580156105a7573d6000803e3d6000fd5b505050506040513d60208110156105bd57600080fd5b50506002546040805163095ea7b360e01b81526001600160a01b039283166004820152602481018c90529051918c169163095ea7b3916044808201926020929091908290030181600087803b15801561061557600080fd5b505af1158015610629573d6000803e3d6000fd5b505050506040513d602081101561063f57600080fd5b50506002546001600160a01b0316638340f5498b61065b6106d6565b8c6040518463ffffffff1660e01b815260040180846001600160a01b03168152602001836001600160a01b031681526020018281526020019350505050600060405180830381600087803b1580156106b257600080fd5b505af11580156106c6573d6000803e3d6000fd5b5050505050505050505050505050565b6000546001600160a01b031690565b6106ed610959565b6001600160a01b03166106fe6106d6565b6001600160a01b031614610759576040805162461bcd60e51b815260206004820181905260248201527f4f776e61626c653a2063616c6c6572206973206e6f7420746865206f776e6572604482015290519081900360640190fd5b6001600160a01b03811661079e5760405162461bcd60e51b81526004018080602001828103825260268152602001806109f16026913960400191505060405180910390fd5b600080546040516001600160a01b03808516939216917f8be0079c531659141344cd1fd0a4f28419497f9722a3daafe3b4186f6b6457e091a3600080546001600160a01b0319166001600160a01b0392909216919091179055565b6003602081815260009283526040928390208054600180830154600280850154968501805489516101009582161595909502600019011691909104601f810187900487028401870190985287835292966001600160a01b0390911695949192918301828280156108aa5780601f1061087f576101008083540402835291602001916108aa565b820191906000526020600020905b81548152906001019060200180831161088d57829003601f168201915b505050600484015460058501546006860154600787018054604080516020601f6002600019610100600188161502019095169490940493840181900481028201810190925282815298999598949750929550909183018282801561094f5780601f106109245761010080835404028352916020019161094f565b820191906000526020600020905b81548152906001019060200180831161093257829003601f168201915b5050505050905088565b3390565b828054600181600116156101000203166002900490600052602060002090601f016020900481019282601f1061099e57805160ff19168380011785556109cb565b828001600101855582156109cb579182015b828111156109cb5782518255916020019190600101906109b0565b506109d79291506109db565b5090565b5b808211156109d757600081556001016109dc56fe4f776e61626c653a206e6577206f776e657220697320746865207a65726f2061646472657373a2646970667358221220aababc863aefe4dbeaffa1d3f317cc775874936741a21050daf4a5a40dbd9d3964736f6c634300060c0033",
  "linkReferences": {},
  "deployedLinkReferences": {}
}