{
  "_format": "hh-sol-artifact-1",
  "contractName": "DeDropsERC",
  "sourceName": "contracts/DeDropsERC.sol",
  "abi": [
    {
      "inputs": [
        {
          "internalType": "address",
          "name": "bankAddress",
          "type": "address"
        }
      ],
      "stateMutability": "nonpayable",
      "type": "constructor"
    },
    {
      "anonymous": false,
      "inputs": [
        {
          "indexed": true,
          "internalType": "address",
          "name": "token",
          "type": "address"
        },
        {
          "indexed": false,
          "internalType": "uint256",
          "name": "amount",
          "type": "uint256"
        },
        {
          "indexed": false,
          "internalType": "string",
          "name": "info",
          "type": "string"
        },
        {
          "indexed": false,
          "internalType": "string",
          "name": "info2",
          "type": "string"
        }
      ],
      "name": "Drop",
      "type": "event"
    },
    {
      "anonymous": false,
      "inputs": [
        {
          "indexed": true,
          "internalType": "address",
          "name": "previousOwner",
          "type": "address"
        },
        {
          "indexed": true,
          "internalType": "address",
          "name": "newOwner",
          "type": "address"
        }
      ],
      "name": "OwnershipTransferred",
      "type": "event"
    },
    {
      "inputs": [],
      "name": "bank",
      "outputs": [
        {
          "internalType": "contract Bank20",
          "name": "",
          "type": "address"
        }
      ],
      "stateMutability": "view",
      "type": "function"
    },
    {
      "inputs": [
        {
          "internalType": "address",
          "name": "token",
          "type": "address"
        },
        {
          "internalType": "uint256",
          "name": "amount",
          "type": "uint256"
        },
        {
          "internalType": "string",
          "name": "info",
          "type": "string"
        },
        {
          "internalType": "string",
          "name": "info2",
          "type": "string"
        }
      ],
      "name": "drop",
      "outputs": [],
      "stateMutability": "nonpayable",
      "type": "function"
    },
    {
      "inputs": [
        {
          "internalType": "uint256",
          "name": "",
          "type": "uint256"
        }
      ],
      "name": "idToItem",
      "outputs": [
        {
          "internalType": "uint256",
          "name": "id",
          "type": "uint256"
        },
        {
          "internalType": "address",
          "name": "token",
          "type": "address"
        },
        {
          "internalType": "string",
          "name": "info",
          "type": "string"
        },
        {
          "internalType": "string",
          "name": "info2",
          "type": "string"
        }
      ],
      "stateMutability": "view",
      "type": "function"
    },
    {
      "inputs": [],
      "name": "length",
      "outputs": [
        {
          "internalType": "uint256",
          "name": "",
          "type": "uint256"
        }
      ],
      "stateMutability": "view",
      "type": "function"
    },
    {
      "inputs": [],
      "name": "owner",
      "outputs": [
        {
          "internalType": "address",
          "name": "",
          "type": "address"
        }
      ],
      "stateMutability": "view",
      "type": "function"
    },
    {
      "inputs": [],
      "name": "renounceOwnership",
      "outputs": [],
      "stateMutability": "nonpayable",
      "type": "function"
    },
    {
      "inputs": [
        {
          "internalType": "address",
          "name": "newOwner",
          "type": "address"
        }
      ],
      "name": "transferOwnership",
      "outputs": [],
      "stateMutability": "nonpayable",
      "type": "function"
    }
  ],
  "bytecode": "0x6080604052600060015534801561001557600080fd5b50604051610b19380380610b198339818101604052602081101561003857600080fd5b505160006100446100b3565b600080546001600160a01b0319166001600160a01b0383169081178255604051929350917f8be0079c531659141344cd1fd0a4f28419497f9722a3daafe3b4186f6b6457e0908290a350600280546001600160a01b0319166001600160a01b03929092169190911790556100b7565b3390565b610a53806100c66000396000f3fe608060405234801561001057600080fd5b506004361061007d5760003560e01c80638da5cb5b1161005b5780638da5cb5b146100ca578063a36701a9146100d2578063da9dd9c8146101e4578063f2fde38b146102bb5761007d565b80631f7b6d3214610082578063715018a61461009c57806376cdb03b146100a6575b600080fd5b61008a6102e1565b60408051918252519081900360200190f35b6100a46102e7565b005b6100ae6103a5565b604080516001600160a01b039092168252519081900360200190f35b6100ae6103b4565b6100ef600480360360208110156100e857600080fd5b50356103c3565b60405180858152602001846001600160a01b031681526020018060200180602001838103835285818151815260200191508051906020019080838360005b8381101561014557818101518382015260200161012d565b50505050905090810190601f1680156101725780820380516001836020036101000a031916815260200191505b50838103825284518152845160209182019186019080838360005b838110156101a557818101518382015260200161018d565b50505050905090810190601f1680156101d25780820380516001836020036101000a031916815260200191505b50965050505050505060405180910390f35b6100a4600480360360808110156101fa57600080fd5b6001600160a01b038235169160208101359181019060608101604082013564010000000081111561022a57600080fd5b82018360208201111561023c57600080fd5b8035906020019184600183028401116401000000008311171561025e57600080fd5b91939092909160208101903564010000000081111561027c57600080fd5b82018360208201111561028e57600080fd5b803590602001918460018302840111640100000000831117156102b057600080fd5b509092509050610509565b6100a4600480360360208110156102d157600080fd5b50356001600160a01b031661084c565b60015481565b6102ef610960565b6001600160a01b03166103006103b4565b6001600160a01b03161461035b576040805162461bcd60e51b815260206004820181905260248201527f4f776e61626c653a2063616c6c6572206973206e6f7420746865206f776e6572604482015290519081900360640190fd5b600080546040516001600160a01b03909116907f8be0079c531659141344cd1fd0a4f28419497f9722a3daafe3b4186f6b6457e0908390a3600080546001600160a01b0319169055565b6002546001600160a01b031681565b6000546001600160a01b031690565b60036020908152600091825260409182902080546001808301546002808501805488516101009582161595909502600019011691909104601f810187900487028401870190975286835292956001600160a01b039091169491929183018282801561046f5780601f106104445761010080835404028352916020019161046f565b820191906000526020600020905b81548152906001019060200180831161045257829003601f168201915b5050505060038301805460408051602060026001851615610100026000190190941693909304601f81018490048402820184019092528181529495949350908301828280156104ff5780601f106104d4576101008083540402835291602001916104ff565b820191906000526020600020905b8154815290600101906020018083116104e257829003601f168201915b5050505050905084565b60018054810190819055604080516080810182528281526001600160a01b0389166020808301919091528251601f880182900482028101820184528781529192830191908890889081908401838280828437600092019190915250505090825250604080516020601f87018190048102820181019092528581529181019190869086908190840183828082843760009201829052509390945250508381526003602090815260409182902084518155848201516001820180546001600160a01b0319166001600160a01b039092169190911790559184015180519293506105f99260028501929190910190610964565b5060608201518051610615916003840191602090910190610964565b5050604080516323b872dd60e01b81523360048201523060248201526044810189905290516001600160a01b038a1692506323b872dd916064808201926020929091908290030181600087803b15801561066e57600080fd5b505af1158015610682573d6000803e3d6000fd5b505050506040513d602081101561069857600080fd5b50506002546040805163095ea7b360e01b81526001600160a01b0392831660048201526024810189905290519189169163095ea7b3916044808201926020929091908290030181600087803b1580156106f057600080fd5b505af1158015610704573d6000803e3d6000fd5b505050506040513d602081101561071a57600080fd5b50506002546001600160a01b0316638340f549886107366103b4565b896040518463ffffffff1660e01b815260040180846001600160a01b03168152602001836001600160a01b031681526020018281526020019350505050600060405180830381600087803b15801561078d57600080fd5b505af11580156107a1573d6000803e3d6000fd5b50505050866001600160a01b03167f40c020bdff95c39d4a05343f14a5f85282cd543ef1b905098e3e33c520f3b30f87878787876040518086815260200180602001806020018381038352878782818152602001925080828437600083820152601f01601f191690910184810383528581526020019050858580828437600083820152604051601f909101601f1916909201829003995090975050505050505050a250505050505050565b610854610960565b6001600160a01b03166108656103b4565b6001600160a01b0316146108c0576040805162461bcd60e51b815260206004820181905260248201527f4f776e61626c653a2063616c6c6572206973206e6f7420746865206f776e6572604482015290519081900360640190fd5b6001600160a01b0381166109055760405162461bcd60e51b81526004018080602001828103825260268152602001806109f86026913960400191505060405180910390fd5b600080546040516001600160a01b03808516939216917f8be0079c531659141344cd1fd0a4f28419497f9722a3daafe3b4186f6b6457e091a3600080546001600160a01b0319166001600160a01b0392909216919091179055565b3390565b828054600181600116156101000203166002900490600052602060002090601f016020900481019282601f106109a557805160ff19168380011785556109d2565b828001600101855582156109d2579182015b828111156109d25782518255916020019190600101906109b7565b506109de9291506109e2565b5090565b5b808211156109de57600081556001016109e356fe4f776e61626c653a206e6577206f776e657220697320746865207a65726f2061646472657373a2646970667358221220ff235f1d52a5d979eaddc5c6459735cb7df2a35568c554271c9dbd772f78813064736f6c634300060c0033",
  "linkReferences": {},
  "deployedLinkReferences": {}
}