{
  "_format": "hh-sol-artifact-1",
  "contractName": "DeDropsNFT",
  "sourceName": "contracts/DeDropsNFT.sol",
  "abi": [
    {
      "inputs": [
        {
          "internalType": "address",
          "name": "bankAddress",
          "type": "address"
        }
      ],
      "stateMutability": "nonpayable",
      "type": "constructor"
    },
    {
      "anonymous": false,
      "inputs": [
        {
          "indexed": true,
          "internalType": "address",
          "name": "account",
          "type": "address"
        },
        {
          "indexed": true,
          "internalType": "address",
          "name": "operator",
          "type": "address"
        },
        {
          "indexed": false,
          "internalType": "bool",
          "name": "approved",
          "type": "bool"
        }
      ],
      "name": "ApprovalForAll",
      "type": "event"
    },
    {
      "anonymous": false,
      "inputs": [
        {
          "indexed": true,
          "internalType": "uint256",
          "name": "id",
          "type": "uint256"
        },
        {
          "indexed": false,
          "internalType": "uint256",
          "name": "amount",
          "type": "uint256"
        },
        {
          "indexed": false,
          "internalType": "string",
          "name": "info",
          "type": "string"
        },
        {
          "indexed": false,
          "internalType": "string",
          "name": "info2",
          "type": "string"
        }
      ],
      "name": "Drop",
      "type": "event"
    },
    {
      "anonymous": false,
      "inputs": [
        {
          "indexed": true,
          "internalType": "address",
          "name": "previousOwner",
          "type": "address"
        },
        {
          "indexed": true,
          "internalType": "address",
          "name": "newOwner",
          "type": "address"
        }
      ],
      "name": "OwnershipTransferred",
      "type": "event"
    },
    {
      "anonymous": false,
      "inputs": [
        {
          "indexed": true,
          "internalType": "address",
          "name": "operator",
          "type": "address"
        },
        {
          "indexed": true,
          "internalType": "address",
          "name": "from",
          "type": "address"
        },
        {
          "indexed": true,
          "internalType": "address",
          "name": "to",
          "type": "address"
        },
        {
          "indexed": false,
          "internalType": "uint256[]",
          "name": "ids",
          "type": "uint256[]"
        },
        {
          "indexed": false,
          "internalType": "uint256[]",
          "name": "values",
          "type": "uint256[]"
        }
      ],
      "name": "TransferBatch",
      "type": "event"
    },
    {
      "anonymous": false,
      "inputs": [
        {
          "indexed": true,
          "internalType": "address",
          "name": "operator",
          "type": "address"
        },
        {
          "indexed": true,
          "internalType": "address",
          "name": "from",
          "type": "address"
        },
        {
          "indexed": true,
          "internalType": "address",
          "name": "to",
          "type": "address"
        },
        {
          "indexed": false,
          "internalType": "uint256",
          "name": "id",
          "type": "uint256"
        },
        {
          "indexed": false,
          "internalType": "uint256",
          "name": "value",
          "type": "uint256"
        }
      ],
      "name": "TransferSingle",
      "type": "event"
    },
    {
      "anonymous": false,
      "inputs": [
        {
          "indexed": false,
          "internalType": "string",
          "name": "value",
          "type": "string"
        },
        {
          "indexed": true,
          "internalType": "uint256",
          "name": "id",
          "type": "uint256"
        }
      ],
      "name": "URI",
      "type": "event"
    },
    {
      "inputs": [
        {
          "internalType": "address",
          "name": "account",
          "type": "address"
        },
        {
          "internalType": "uint256",
          "name": "id",
          "type": "uint256"
        }
      ],
      "name": "balanceOf",
      "outputs": [
        {
          "internalType": "uint256",
          "name": "",
          "type": "uint256"
        }
      ],
      "stateMutability": "view",
      "type": "function"
    },
    {
      "inputs": [
        {
          "internalType": "address[]",
          "name": "accounts",
          "type": "address[]"
        },
        {
          "internalType": "uint256[]",
          "name": "ids",
          "type": "uint256[]"
        }
      ],
      "name": "balanceOfBatch",
      "outputs": [
        {
          "internalType": "uint256[]",
          "name": "",
          "type": "uint256[]"
        }
      ],
      "stateMutability": "view",
      "type": "function"
    },
    {
      "inputs": [],
      "name": "bank",
      "outputs": [
        {
          "internalType": "contract Bank1155",
          "name": "",
          "type": "address"
        }
      ],
      "stateMutability": "view",
      "type": "function"
    },
    {
      "inputs": [
        {
          "internalType": "uint256",
          "name": "",
          "type": "uint256"
        }
      ],
      "name": "idToItem",
      "outputs": [
        {
          "internalType": "uint256",
          "name": "id",
          "type": "uint256"
        },
        {
          "internalType": "uint256",
          "name": "amount",
          "type": "uint256"
        },
        {
          "internalType": "string",
          "name": "info",
          "type": "string"
        },
        {
          "internalType": "string",
          "name": "info2",
          "type": "string"
        }
      ],
      "stateMutability": "view",
      "type": "function"
    },
    {
      "inputs": [
        {
          "internalType": "address",
          "name": "account",
          "type": "address"
        },
        {
          "internalType": "address",
          "name": "operator",
          "type": "address"
        }
      ],
      "name": "isApprovedForAll",
      "outputs": [
        {
          "internalType": "bool",
          "name": "",
          "type": "bool"
        }
      ],
      "stateMutability": "view",
      "type": "function"
    },
    {
      "inputs": [],
      "name": "length",
      "outputs": [
        {
          "internalType": "uint256",
          "name": "",
          "type": "uint256"
        }
      ],
      "stateMutability": "view",
      "type": "function"
    },
    {
      "inputs": [
        {
          "internalType": "uint256",
          "name": "amount",
          "type": "uint256"
        },
        {
          "internalType": "string",
          "name": "info",
          "type": "string"
        },
        {
          "internalType": "string",
          "name": "info2",
          "type": "string"
        }
      ],
      "name": "mint",
      "outputs": [],
      "stateMutability": "nonpayable",
      "type": "function"
    },
    {
      "inputs": [],
      "name": "owner",
      "outputs": [
        {
          "internalType": "address",
          "name": "",
          "type": "address"
        }
      ],
      "stateMutability": "view",
      "type": "function"
    },
    {
      "inputs": [],
      "name": "renounceOwnership",
      "outputs": [],
      "stateMutability": "nonpayable",
      "type": "function"
    },
    {
      "inputs": [
        {
          "internalType": "address",
          "name": "from",
          "type": "address"
        },
        {
          "internalType": "address",
          "name": "to",
          "type": "address"
        },
        {
          "internalType": "uint256[]",
          "name": "ids",
          "type": "uint256[]"
        },
        {
          "internalType": "uint256[]",
          "name": "amounts",
          "type": "uint256[]"
        },
        {
          "internalType": "bytes",
          "name": "data",
          "type": "bytes"
        }
      ],
      "name": "safeBatchTransferFrom",
      "outputs": [],
      "stateMutability": "nonpayable",
      "type": "function"
    },
    {
      "inputs": [
        {
          "internalType": "address",
          "name": "from",
          "type": "address"
        },
        {
          "internalType": "address",
          "name": "to",
          "type": "address"
        },
        {
          "internalType": "uint256",
          "name": "id",
          "type": "uint256"
        },
        {
          "internalType": "uint256",
          "name": "amount",
          "type": "uint256"
        },
        {
          "internalType": "bytes",
          "name": "data",
          "type": "bytes"
        }
      ],
      "name": "safeTransferFrom",
      "outputs": [],
      "stateMutability": "nonpayable",
      "type": "function"
    },
    {
      "inputs": [
        {
          "internalType": "address",
          "name": "operator",
          "type": "address"
        },
        {
          "internalType": "bool",
          "name": "approved",
          "type": "bool"
        }
      ],
      "name": "setApprovalForAll",
      "outputs": [],
      "stateMutability": "nonpayable",
      "type": "function"
    },
    {
      "inputs": [
        {
          "internalType": "bytes4",
          "name": "interfaceId",
          "type": "bytes4"
        }
      ],
      "name": "supportsInterface",
      "outputs": [
        {
          "internalType": "bool",
          "name": "",
          "type": "bool"
        }
      ],
      "stateMutability": "view",
      "type": "function"
    },
    {
      "inputs": [
        {
          "internalType": "address",
          "name": "newOwner",
          "type": "address"
        }
      ],
      "name": "transferOwnership",
      "outputs": [],
      "stateMutability": "nonpayable",
      "type": "function"
    },
    {
      "inputs": [
        {
          "internalType": "uint256",
          "name": "",
          "type": "uint256"
        }
      ],
      "name": "uri",
      "outputs": [
        {
          "internalType": "string",
          "name": "",
          "type": "string"
        }
      ],
      "stateMutability": "view",
      "type": "function"
    }
  ],
  "bytecode": "0x608060405260006005553480156200001657600080fd5b506040516200220e3803806200220e833981810160405260208110156200003c57600080fd5b505160408051808201909152600b81526a3232b23937b839973c3cbd60a91b6020820152620000726301ffc9a760e01b62000122565b6200007d81620001a7565b6200008f636cdb3d1360e11b62000122565b620000a16303a24d0760e21b62000122565b506000620000ae620001c0565b600480546001600160a01b0319166001600160a01b038316908117909155604051919250906000907f8be0079c531659141344cd1fd0a4f28419497f9722a3daafe3b4186f6b6457e0908290a350600680546001600160a01b0319166001600160a01b039290921691909117905562000260565b6001600160e01b0319808216141562000182576040805162461bcd60e51b815260206004820152601c60248201527f4552433136353a20696e76616c696420696e7465726661636520696400000000604482015290519081900360640190fd5b6001600160e01b0319166000908152602081905260409020805460ff19166001179055565b8051620001bc906003906020840190620001c4565b5050565b3390565b828054600181600116156101000203166002900490600052602060002090601f016020900481019282601f106200020757805160ff191683800117855562000237565b8280016001018555821562000237579182015b82811115620002375782518255916020019190600101906200021a565b506200024592915062000249565b5090565b5b808211156200024557600081556001016200024a565b611f9e80620002706000396000f3fe608060405234801561001057600080fd5b50600436106100f45760003560e01c8063715018a611610097578063a36701a911610066578063a36701a914610669578063e985e9c514610772578063f242432a146107a0578063f2fde38b14610869576100f4565b8063715018a61461060757806376cdb03b1461060f5780638da5cb5b14610633578063a22cb4651461063b576100f4565b80631f7b6d32116100d35780631f7b6d32146102045780632825df7b1461020c5780632eb2c2d6146102d35780634e1273f414610494576100f4565b8062fdd58e146100f957806301ffc9a7146101375780630e89341c14610172575b600080fd5b6101256004803603604081101561010f57600080fd5b506001600160a01b03813516906020013561088f565b60408051918252519081900360200190f35b61015e6004803603602081101561014d57600080fd5b50356001600160e01b0319166108fe565b604080519115158252519081900360200190f35b61018f6004803603602081101561018857600080fd5b503561091d565b6040805160208082528351818301528351919283929083019185019080838360005b838110156101c95781810151838201526020016101b1565b50505050905090810190601f1680156101f65780820380516001836020036101000a031916815260200191505b509250505060405180910390f35b6101256109b5565b6102d16004803603606081101561022257600080fd5b81359190810190604081016020820135600160201b81111561024357600080fd5b82018360208201111561025557600080fd5b803590602001918460018302840111600160201b8311171561027657600080fd5b919390929091602081019035600160201b81111561029357600080fd5b8201836020820111156102a557600080fd5b803590602001918460018302840111600160201b831117156102c657600080fd5b5090925090506109bb565b005b6102d1600480360360a08110156102e957600080fd5b6001600160a01b038235811692602081013590911691810190606081016040820135600160201b81111561031c57600080fd5b82018360208201111561032e57600080fd5b803590602001918460208302840111600160201b8311171561034f57600080fd5b9190808060200260200160405190810160405280939291908181526020018383602002808284376000920191909152509295949360208101935035915050600160201b81111561039e57600080fd5b8201836020820111156103b057600080fd5b803590602001918460208302840111600160201b831117156103d157600080fd5b9190808060200260200160405190810160405280939291908181526020018383602002808284376000920191909152509295949360208101935035915050600160201b81111561042057600080fd5b82018360208201111561043257600080fd5b803590602001918460018302840111600160201b8311171561045357600080fd5b91908080601f016020809104026020016040519081016040528093929190818152602001838380828437600092019190915250929550610b86945050505050565b6105b7600480360360408110156104aa57600080fd5b810190602081018135600160201b8111156104c457600080fd5b8201836020820111156104d657600080fd5b803590602001918460208302840111600160201b831117156104f757600080fd5b9190808060200260200160405190810160405280939291908181526020018383602002808284376000920191909152509295949360208101935035915050600160201b81111561054657600080fd5b82018360208201111561055857600080fd5b803590602001918460208302840111600160201b8311171561057957600080fd5b919080806020026020016040519081016040528093929190818152602001838360200280828437600092019190915250929550610e84945050505050565b60408051602080825283518183015283519192839290830191858101910280838360005b838110156105f35781810151838201526020016105db565b505050509050019250505060405180910390f35b6102d1610f70565b61061761102e565b604080516001600160a01b039092168252519081900360200190f35b61061761103d565b6102d16004803603604081101561065157600080fd5b506001600160a01b038135169060200135151561104d565b6106866004803603602081101561067f57600080fd5b503561113c565b604051808581526020018481526020018060200180602001838103835285818151815260200191508051906020019080838360005b838110156106d35781810151838201526020016106bb565b50505050905090810190601f1680156107005780820380516001836020036101000a031916815260200191505b50838103825284518152845160209182019186019080838360005b8381101561073357818101518382015260200161071b565b50505050905090810190601f1680156107605780820380516001836020036101000a031916815260200191505b50965050505050505060405180910390f35b61015e6004803603604081101561078857600080fd5b506001600160a01b0381358116916020013516611275565b6102d1600480360360a08110156107b657600080fd5b6001600160a01b03823581169260208101359091169160408201359160608101359181019060a081016080820135600160201b8111156107f557600080fd5b82018360208201111561080757600080fd5b803590602001918460018302840111600160201b8311171561082857600080fd5b91908080601f0160208091040260200160405190810160405280939291908181526020018383808284376000920191909152509295506112a3945050505050565b6102d16004803603602081101561087f57600080fd5b50356001600160a01b031661146e565b60006001600160a01b0383166108d65760405162461bcd60e51b815260040180806020018281038252602b815260200180611dd3602b913960400191505060405180910390fd5b5060009081526001602090815260408083206001600160a01b03949094168352929052205490565b6001600160e01b03191660009081526020819052604090205460ff1690565b60038054604080516020601f60026000196101006001881615020190951694909404938401819004810282018101909252828152606093909290918301828280156109a95780601f1061097e576101008083540402835291602001916109a9565b820191906000526020600020905b81548152906001019060200180831161098c57829003601f168201915b50505050509050919050565b60055481565b60058054600101908190556040805160808101825282815260208082018990528251601f880182900482028101820184528781529192830191908890889081908401838280828437600092019190915250505090825250604080516020601f87018190048102820181019092528581529181019190869086908190840183828082843760009201829052509390945250508381526007602090815260409182902084518155848201516001820155918401518051929350610a859260028501929190910190611c38565b5060608201518051610aa1916003840191602090910190611c38565b50905050610ac033828860405180602001604052806000815250611583565b600654610ae99033906001600160a01b03168389610ae4610adf61103d565b61168b565b6112a3565b807fd98d7d262ee69a0e7f1e002c08e8f5432b5b407f3fbc7dacf22c4901c3b9ffb887878787876040518086815260200180602001806020018381038352878782818152602001925080828437600083820152601f01601f191690910184810383528581526020019050858580828437600083820152604051601f909101601f1916909201829003995090975050505050505050a2505050505050565b8151835114610bc65760405162461bcd60e51b8152600401808060200182810382526028815260200180611f206028913960400191505060405180910390fd5b6001600160a01b038416610c0b5760405162461bcd60e51b8152600401808060200182810382526025815260200180611e4d6025913960400191505060405180910390fd5b610c13611702565b6001600160a01b0316856001600160a01b03161480610c3e5750610c3e85610c39611702565b611275565b610c795760405162461bcd60e51b8152600401808060200182810382526032815260200180611e726032913960400191505060405180910390fd5b6000610c83611702565b9050610c93818787878787610e7c565b60005b8451811015610d94576000858281518110610cad57fe5b602002602001015190506000858381518110610cc557fe5b60200260200101519050610d32816040518060600160405280602a8152602001611ea4602a91396001600086815260200190815260200160002060008d6001600160a01b03166001600160a01b03168152602001908152602001600020546117069092919063ffffffff16565b60008381526001602090815260408083206001600160a01b038e811685529252808320939093558a1681522054610d69908261179d565b60009283526001602081815260408086206001600160a01b038d168752909152909320555001610c96565b50846001600160a01b0316866001600160a01b0316826001600160a01b03167f4a39dc06d4c0dbc64b70af90fd698a233a518aa5d07e595d983b8c0526c8f7fb8787604051808060200180602001838103835285818151815260200191508051906020019060200280838360005b83811015610e1a578181015183820152602001610e02565b50505050905001838103825284818151815260200191508051906020019060200280838360005b83811015610e59578181015183820152602001610e41565b5050505090500194505050505060405180910390a4610e7c8187878787876117fe565b505050505050565b60608151835114610ec65760405162461bcd60e51b8152600401808060200182810382526029815260200180611ef76029913960400191505060405180910390fd5b6060835167ffffffffffffffff81118015610ee057600080fd5b50604051908082528060200260200182016040528015610f0a578160200160208202803683370190505b50905060005b8451811015610f6857610f49858281518110610f2857fe5b6020026020010151858381518110610f3c57fe5b602002602001015161088f565b828281518110610f5557fe5b6020908102919091010152600101610f10565b509392505050565b610f78611702565b6001600160a01b0316610f8961103d565b6001600160a01b031614610fe4576040805162461bcd60e51b815260206004820181905260248201527f4f776e61626c653a2063616c6c6572206973206e6f7420746865206f776e6572604482015290519081900360640190fd5b6004546040516000916001600160a01b0316907f8be0079c531659141344cd1fd0a4f28419497f9722a3daafe3b4186f6b6457e0908390a3600480546001600160a01b0319169055565b6006546001600160a01b031681565b6004546001600160a01b03165b90565b816001600160a01b031661105f611702565b6001600160a01b031614156110a55760405162461bcd60e51b8152600401808060200182810382526029815260200180611ece6029913960400191505060405180910390fd5b80600260006110b2611702565b6001600160a01b03908116825260208083019390935260409182016000908120918716808252919093529120805460ff1916921515929092179091556110f6611702565b6001600160a01b03167f17307eab39ab6107e8899845ad3d59bd9653f200f220920489ca2b5937696c318360405180821515815260200191505060405180910390a35050565b60076020908152600091825260409182902080546001808301546002808501805488519481161561010002600019011691909104601f8101879004870284018701909752868352929590949192918301828280156111db5780601f106111b0576101008083540402835291602001916111db565b820191906000526020600020905b8154815290600101906020018083116111be57829003601f168201915b5050505060038301805460408051602060026001851615610100026000190190941693909304601f810184900484028201840190925281815294959493509083018282801561126b5780601f106112405761010080835404028352916020019161126b565b820191906000526020600020905b81548152906001019060200180831161124e57829003601f168201915b5050505050905084565b6001600160a01b03918216600090815260026020908152604080832093909416825291909152205460ff1690565b6001600160a01b0384166112e85760405162461bcd60e51b8152600401808060200182810382526025815260200180611e4d6025913960400191505060405180910390fd5b6112f0611702565b6001600160a01b0316856001600160a01b03161480611316575061131685610c39611702565b6113515760405162461bcd60e51b8152600401808060200182810382526029815260200180611e246029913960400191505060405180910390fd5b600061135b611702565b905061137b81878761136c88611a7d565b61137588611a7d565b87610e7c565b6113c2836040518060600160405280602a8152602001611ea4602a913960008781526001602090815260408083206001600160a01b038d1684529091529020549190611706565b60008581526001602090815260408083206001600160a01b038b811685529252808320939093558716815220546113f9908461179d565b60008581526001602090815260408083206001600160a01b03808b168086529184529382902094909455805188815291820187905280518a8416938616927fc3d58168c5ae7397731d063d5bbf3d657854427343f4c083240f7aacaa2d0f6292908290030190a4610e7c818787878787611ac1565b611476611702565b6001600160a01b031661148761103d565b6001600160a01b0316146114e2576040805162461bcd60e51b815260206004820181905260248201527f4f776e61626c653a2063616c6c6572206973206e6f7420746865206f776e6572604482015290519081900360640190fd5b6001600160a01b0381166115275760405162461bcd60e51b8152600401808060200182810382526026815260200180611dfe6026913960400191505060405180910390fd5b6004546040516001600160a01b038084169216907f8be0079c531659141344cd1fd0a4f28419497f9722a3daafe3b4186f6b6457e090600090a3600480546001600160a01b0319166001600160a01b0392909216919091179055565b6001600160a01b0384166115c85760405162461bcd60e51b8152600401808060200182810382526021815260200180611f486021913960400191505060405180910390fd5b60006115d2611702565b90506115e48160008761136c88611a7d565b60008481526001602090815260408083206001600160a01b0389168452909152902054611611908461179d565b60008581526001602090815260408083206001600160a01b03808b16808652918452828520959095558151898152928301889052815190948616927fc3d58168c5ae7397731d063d5bbf3d657854427343f4c083240f7aacaa2d0f6292908290030190a461168481600087878787611ac1565b5050505050565b60408051601480825281830190925260609183831b91839160208201818036833701905050905060005b60148160ff161015610f6857828160ff16601481106116d057fe5b1a60f81b828260ff16815181106116e357fe5b60200101906001600160f81b031916908160001a9053506001016116b5565b3390565b600081848411156117955760405162461bcd60e51b81526004018080602001828103825283818151815260200191508051906020019080838360005b8381101561175a578181015183820152602001611742565b50505050905090810190601f1680156117875780820380516001836020036101000a031916815260200191505b509250505060405180910390fd5b505050900390565b6000828201838110156117f7576040805162461bcd60e51b815260206004820152601b60248201527f536166654d6174683a206164646974696f6e206f766572666c6f770000000000604482015290519081900360640190fd5b9392505050565b611810846001600160a01b0316611c32565b15610e7c57836001600160a01b031663bc197c8187878686866040518663ffffffff1660e01b815260040180866001600160a01b03168152602001856001600160a01b03168152602001806020018060200180602001848103845287818151815260200191508051906020019060200280838360005b8381101561189e578181015183820152602001611886565b50505050905001848103835286818151815260200191508051906020019060200280838360005b838110156118dd5781810151838201526020016118c5565b50505050905001848103825285818151815260200191508051906020019080838360005b83811015611919578181015183820152602001611901565b50505050905090810190601f1680156119465780820380516001836020036101000a031916815260200191505b5098505050505050505050602060405180830381600087803b15801561196b57600080fd5b505af192505050801561199057506040513d602081101561198b57600080fd5b505160015b611a255761199c611cd1565b806119a757506119ee565b60405162461bcd60e51b815260206004820181815283516024840152835184939192839260440191908501908083836000831561175a578181015183820152602001611742565b60405162461bcd60e51b8152600401808060200182810382526034815260200180611d776034913960400191505060405180910390fd5b6001600160e01b0319811663bc197c8160e01b14611a745760405162461bcd60e51b8152600401808060200182810382526028815260200180611dab6028913960400191505060405180910390fd5b50505050505050565b604080516001808252818301909252606091829190602080830190803683370190505090508281600081518110611ab057fe5b602090810291909101015292915050565b611ad3846001600160a01b0316611c32565b15610e7c57836001600160a01b031663f23a6e6187878686866040518663ffffffff1660e01b815260040180866001600160a01b03168152602001856001600160a01b0316815260200184815260200183815260200180602001828103825283818151815260200191508051906020019080838360005b83811015611b62578181015183820152602001611b4a565b50505050905090810190601f168015611b8f5780820380516001836020036101000a031916815260200191505b509650505050505050602060405180830381600087803b158015611bb257600080fd5b505af1925050508015611bd757506040513d6020811015611bd257600080fd5b505160015b611be35761199c611cd1565b6001600160e01b0319811663f23a6e6160e01b14611a745760405162461bcd60e51b8152600401808060200182810382526028815260200180611dab6028913960400191505060405180910390fd5b3b151590565b828054600181600116156101000203166002900490600052602060002090601f016020900481019282601f10611c7957805160ff1916838001178555611ca6565b82800160010185558215611ca6579182015b82811115611ca6578251825591602001919060010190611c8b565b50611cb2929150611cb6565b5090565b5b80821115611cb25760008155600101611cb7565b60e01c90565b600060443d1015611ce15761104a565b600481823e6308c379a0611cf58251611ccb565b14611cff5761104a565b6040513d600319016004823e80513d67ffffffffffffffff8160248401118184111715611d2f575050505061104a565b82840192508251915080821115611d49575050505061104a565b503d83016020828401011115611d615750505061104a565b601f01601f191681016020016040529150509056fe455243313135353a207472616e7366657220746f206e6f6e2045524331313535526563656976657220696d706c656d656e746572455243313135353a204552433131353552656365697665722072656a656374656420746f6b656e73455243313135353a2062616c616e636520717565727920666f7220746865207a65726f20616464726573734f776e61626c653a206e6577206f776e657220697320746865207a65726f2061646472657373455243313135353a2063616c6c6572206973206e6f74206f776e6572206e6f7220617070726f766564455243313135353a207472616e7366657220746f20746865207a65726f2061646472657373455243313135353a207472616e736665722063616c6c6572206973206e6f74206f776e6572206e6f7220617070726f766564455243313135353a20696e73756666696369656e742062616c616e636520666f72207472616e73666572455243313135353a2073657474696e6720617070726f76616c2073746174757320666f722073656c66455243313135353a206163636f756e747320616e6420696473206c656e677468206d69736d61746368455243313135353a2069647320616e6420616d6f756e7473206c656e677468206d69736d61746368455243313135353a206d696e7420746f20746865207a65726f2061646472657373a26469706673582212209702282f04d6f2e9a04143d3f725d5c892fc23a203ac3b39d6f699a36dec15a764736f6c634300060c0033",
  "linkReferences": {},
  "deployedLinkReferences": {}
}